{
  "_format": "hh-sol-artifact-1",
  "contractName": "MultiSender",
  "sourceName": "contracts/utils/MultiSender.sol",
  "abi": [
    {
      "inputs": [],
      "stateMutability": "nonpayable",
      "type": "constructor"
    },
    {
      "anonymous": false,
      "inputs": [
        {
          "indexed": true,
          "internalType": "address",
          "name": "sender",
          "type": "address"
        },
        {
          "indexed": false,
          "internalType": "uint256",
          "name": "value",
          "type": "uint256"
        }
      ],
      "name": "MultiSend",
      "type": "event"
    },
    {
      "inputs": [
        {
          "internalType": "address[]",
          "name": "addrs",
          "type": "address[]"
        }
      ],
      "name": "multiSend",
      "outputs": [
        {
          "internalType": "uint256",
          "name": "",
          "type": "uint256"
        },
        {
          "internalType": "uint256",
          "name": "",
          "type": "uint256"
        }
      ],
      "stateMutability": "payable",
      "type": "function"
    },
    {
      "stateMutability": "payable",
      "type": "receive"
    }
  ],
  "bytecode": "0x608060405234801561001057600080fd5b506103a5806100206000396000f3fe6080604052600436106100225760003560e01c806399d136f51461002e57600080fd5b3661002957005b600080fd5b61004161003c3660046102a0565b610058565b60405161004f9291906102db565b60405180910390f35b600080600034116100845760405162461bcd60e51b815260040161007b906102f5565b60405180910390fd5b600083511161009257600080fd5b60008351346100a19190610347565b905060005b8451811015610114578481815181106100c1576100c161035b565b60200260200101516001600160a01b03166108fc839081150290604051600060405180830381858888f19350505050158015610101573d6000803e3d6000fd5b508061010c81610371565b9150506100a6565b50336001600160a01b03167f493bd34b686439e60df5953cee1571b51c3d1ce8c72a3cd9c8c455b353f453303460405161014e919061038c565b60405180910390a250915091565b634e487b7160e01b600052604160045260246000fd5b601f19601f830116810181811067ffffffffffffffff821117156101985761019861015c565b6040525050565b60006101aa60405190565b90506101b68282610172565b919050565b600067ffffffffffffffff8211156101d5576101d561015c565b5060209081020190565b60006001600160a01b0382165b92915050565b6101fb816101df565b811461020657600080fd5b50565b80356101ec816101f2565b6000610227610222846101bb565b61019f565b8381529050602080820190840283018581111561024657610246600080fd5b835b8181101561026a578061025b8882610209565b84525060209283019201610248565b5050509392505050565b600082601f83011261028857610288600080fd5b8135610298848260208601610214565b949350505050565b6000602082840312156102b5576102b5600080fd5b813567ffffffffffffffff8111156102cf576102cf600080fd5b61029884828501610274565b828152604081016102ee60208301849052565b9392505050565b602080825281016101ec8160088152676e6f2076616c756560c01b602082015260400190565b634e487b7160e01b600052601260045260246000fd5b634e487b7160e01b600052601160045260246000fd5b6000826103565761035661031b565b500490565b634e487b7160e01b600052603260045260246000fd5b600060001982141561038557610385610331565b5060010190565b818152602081016101ec56fea164736f6c6343000809000a",
  "linkReferences": {},
  "deployedLinkReferences": {}
}